S01C000041744D6567615F4465766963655F4472697665722E737265635F
S11300000C942A000C944A000C9473000C949C00E9
S11300100C9447000C9447000C94CF000C944700B8
S11300200C9447000C9447000C944A010C94210151
S11300300C9447000C9473010C9447000C949C019D
S11300400C9447000C9447000C9447000C94470010
S11300500C94470011241FBECFE5D8E0DEBFCDBF0E
S113006010E0A0E6B0E0EEE8F3E002C005900D92E7
S1130070A036B107D9F720E0A0E6B0E001C01D9298
S1130080A537B207E1F70E9449000C94C5010C940E
S11300900000FFCF1F920F920FB60F9211242F93DF
S11300A03F934F935F936F937F938F939F93AF93FC
S11300B0BF93EF93FF93E0916400F0916500309754
S11300C009F00995FF91EF91BF91AF919F918F91A5
S11300D07F916F915F914F913F912F910F900FBE40
S11300E00F901F9018951F920F920FB60F92112424
S11300F02F933F934F935F936F937F938F939F932C
S1130100AF93BF93EF93FF93E0916200F09163008C
S1130110309709F00995FF91EF91BF91AF919F91AD
S11301208F917F916F915F914F913F912F910F909C
S11301300FBE0F901F9018951F920F920FB60F923B
S113014011242F933F934F935F936F937F938F93D8
S11301509F93AF93BF93EF93FF93E0916000F0916F
S11301606100309709F00995FF91EF91BF91AF912C
S11301709F918F917F916F915F914F913F912F91BB
S11301800F900FBE0F901F9018958EB58E7F8EBD69
S11301908EB58D7F8EBD8EB58B7F8EBD08951F92DB
S11301A00F920FB60F9211242F933F934F935F93A7
S11301B06F937F938F939F93AF93BF93EF93FF932B
S11301C080916800811113C086B597B520916600AF
S11301D030916700821B930B90936C0080936B00AB
S11301E081E0809368008EB58F7B8EBD13C086B589
S11301F097B52091660030916700821B930B909312
S11302006A0080936900109268008EB580648EBD88
S11302100E94C50086B597B59093670080936600E9
S1130220FF91EF91BF91AF919F918F917F916F91CA
S11302305F914F913F912F910F900FBE0F901F90A0
S113024018951F920F920FB60F9211242F933F937C
S11302504F935F936F937F938F939F93AF93BF93CA
S1130260EF93FF93E0916F00F0917000309709F0E5
S11302700995FF91EF91BF91AF919F918F917F91DC
S11302806F915F914F913F912F910F900FBE0F90FF
S11302901F9018951F920F920FB60F9211242F934F
S11302A03F934F935F936F937F938F939F93AF93FA
S11302B0BF93EF93FF93E0916D00F0916E00309740
S11302C009F00995FF91EF91BF91AF919F918F91A3
S11302D07F916F915F914F913F912F910F900FBE3E
S11302E00F901F9018951F920F920FB60F92112422
S11302F02F933F934F935F936F937F938F939F932A
S1130300AF93BF93EF93FF93E0917300F091740068
S1130310309709F00995FF91EF91BF91AF919F91AB
S11303208F917F916F915F914F913F912F910F909A
S11303300FBE0F901F9018951F920F920FB60F9239
S113034011242F933F934F935F936F937F938F93D6
S11303509F93AF93BF93EF93FF93E0917100F0915C
S11303607200309709F00995FF91EF91BF91AF9119
S11303709F918F917F916F915F914F913F912F91B9
S11103800F900FBE0F901F901895F894FFCFAA
S9030000FC
